{
  "_format": "hh-sol-artifact-1",
  "contractName": "StackUp",
  "sourceName": "contracts/Stackup.sol",
  "abi": [
    {
      "inputs": [],
      "stateMutability": "nonpayable",
      "type": "constructor"
    },
    {
      "inputs": [],
      "name": "admin",
      "outputs": [
        {
          "internalType": "address",
          "name": "",
          "type": "address"
        }
      ],
      "stateMutability": "view",
      "type": "function"
    },
    {
      "inputs": [
        {
          "internalType": "string",
          "name": "title_",
          "type": "string"
        },
        {
          "internalType": "uint8",
          "name": "reward_",
          "type": "uint8"
        },
        {
          "internalType": "uint256",
          "name": "numberOfRewards_",
          "type": "uint256"
        },
        {
          "internalType": "uint256",
          "name": "startTime_",
          "type": "uint256"
        },
        {
          "internalType": "uint256",
          "name": "endTime_",
          "type": "uint256"
        }
      ],
      "name": "createQuest",
      "outputs": [],
      "stateMutability": "nonpayable",
      "type": "function"
    },
    {
      "inputs": [
        {
          "internalType": "uint256",
          "name": "questId",
          "type": "uint256"
        }
      ],
      "name": "deleteQuest",
      "outputs": [],
      "stateMutability": "nonpayable",
      "type": "function"
    },
    {
      "inputs": [
        {
          "internalType": "uint256",
          "name": "questId",
          "type": "uint256"
        },
        {
          "internalType": "string",
          "name": "newTitle",
          "type": "string"
        },
        {
          "internalType": "uint8",
          "name": "newReward",
          "type": "uint8"
        },
        {
          "internalType": "uint256",
          "name": "newNumberOfRewards",
          "type": "uint256"
        },
        {
          "internalType": "uint256",
          "name": "newStartTime",
          "type": "uint256"
        },
        {
          "internalType": "uint256",
          "name": "newEndTime",
          "type": "uint256"
        }
      ],
      "name": "editQuest",
      "outputs": [],
      "stateMutability": "nonpayable",
      "type": "function"
    },
    {
      "inputs": [
        {
          "internalType": "uint256",
          "name": "questId",
          "type": "uint256"
        }
      ],
      "name": "joinQuest",
      "outputs": [],
      "stateMutability": "nonpayable",
      "type": "function"
    },
    {
      "inputs": [],
      "name": "nextQuestId",
      "outputs": [
        {
          "internalType": "uint256",
          "name": "",
          "type": "uint256"
        }
      ],
      "stateMutability": "view",
      "type": "function"
    },
    {
      "inputs": [
        {
          "internalType": "address",
          "name": "",
          "type": "address"
        },
        {
          "internalType": "uint256",
          "name": "",
          "type": "uint256"
        }
      ],
      "name": "playerQuestStatuses",
      "outputs": [
        {
          "internalType": "enum StackUp.PlayerQuestStatus",
          "name": "",
          "type": "uint8"
        }
      ],
      "stateMutability": "view",
      "type": "function"
    },
    {
      "inputs": [
        {
          "internalType": "uint256",
          "name": "",
          "type": "uint256"
        }
      ],
      "name": "quests",
      "outputs": [
        {
          "internalType": "uint256",
          "name": "questId",
          "type": "uint256"
        },
        {
          "internalType": "uint256",
          "name": "numberOfPlayers",
          "type": "uint256"
        },
        {
          "internalType": "string",
          "name": "title",
          "type": "string"
        },
        {
          "internalType": "uint8",
          "name": "reward",
          "type": "uint8"
        },
        {
          "internalType": "uint256",
          "name": "numberOfRewards",
          "type": "uint256"
        },
        {
          "internalType": "uint256",
          "name": "startTime",
          "type": "uint256"
        },
        {
          "internalType": "uint256",
          "name": "endTime",
          "type": "uint256"
        }
      ],
      "stateMutability": "view",
      "type": "function"
    },
    {
      "inputs": [
        {
          "internalType": "uint256",
          "name": "questId",
          "type": "uint256"
        }
      ],
      "name": "submitQuest",
      "outputs": [],
      "stateMutability": "nonpayable",
      "type": "function"
    }
  ],
  "bytecode": "0x608060405234801561001057600080fd5b50336000806101000a81548173ffffffffffffffffffffffffffffffffffffffff021916908373ffffffffffffffffffffffffffffffffffffffff160217905550611a88806100606000396000f3fe608060405234801561001057600080fd5b50600436106100935760003560e01c806399f7358c1161006657806399f7358c14610108578063ad1c8a2414610138578063d638c98314610154578063e085f98014610172578063f851a440146101a857610093565b8063103d36b814610098578063402702e7146100b45780637304b78e146100d057806378ff2bda146100ec575b600080fd5b6100b260048036038101906100ad9190610d74565b6101c6565b005b6100ce60048036038101906100c99190610e3f565b610324565b005b6100ea60048036038101906100e59190610eee565b61050f565b005b61010660048036038101906101019190610d74565b6106bb565b005b610122600480360381019061011d9190610fe6565b61094a565b60405161012f919061109d565b60405180910390f35b610152600480360381019061014d9190610d74565b610979565b005b61015c610bd6565b60405161016991906110c7565b60405180910390f35b61018c60048036038101906101879190610d74565b610bdc565b60405161019f9796959493929190611181565b60405180910390f35b6101b0610cb3565b6040516101bd9190611206565b60405180910390f35b60008054906101000a900473ffffffffffffffffffffffffffffffffffffffff1673ffffffffffffffffffffffffffffffffffffffff163373ffffffffffffffffffffffffffffffffffffffff1614610254576040517f08c379a000000000000000000000000000000000000000000000000000000000815260040161024b90611293565b60405180910390fd5b8060006002600083815260200190815260200160002060030160009054906101000a900460ff1660ff16116102be576040517f08c379a00000000000000000000000000000000000000000000000000000000081526004016102b5906112ff565b60405180910390fd5b6002600083815260200190815260200160002060008082016000905560018201600090556002820160006102f29190610cd7565b6003820160006101000a81549060ff021916905560048201600090556005820160009055600682016000905550505050565b60008054906101000a900473ffffffffffffffffffffffffffffffffffffffff1673ffffffffffffffffffffffffffffffffffffffff163373ffffffffffffffffffffffffffffffffffffffff16146103b2576040517f08c379a00000000000000000000000000000000000000000000000000000000081526004016103a990611293565b60405180910390fd5b8660006002600083815260200190815260200160002060030160009054906101000a900460ff1660ff161161041c576040517f08c379a0000000000000000000000000000000000000000000000000000000008152600401610413906112ff565b60405180910390fd5b4283101561045f576040517f08c379a00000000000000000000000000000000000000000000000000000000081526004016104569061136b565b60405180910390fd5b8282116104a1576040517f08c379a0000000000000000000000000000000000000000000000000000000008152600401610498906113fd565b60405180910390fd5b6000600260008a8152602001908152602001600020905087878260020191826104cb929190611663565b50858160030160006101000a81548160ff021916908360ff160217905550848160040181905550838160050181905550828160060181905550505050505050505050565b60008054906101000a900473ffffffffffffffffffffffffffffffffffffffff1673ffffffffffffffffffffffffffffffffffffffff163373ffffffffffffffffffffffffffffffffffffffff161461059d576040517f08c379a000000000000000000000000000000000000000000000000000000000815260040161059490611293565b60405180910390fd5b6040518060e0016040528060015481526020016000815260200187878080601f016020809104026020016040519081016040528093929190818152602001838380828437600081840152601f19601f8201169050808301925050505050505081526020018560ff16815260200184815260200183815260200182815250600260006001548152602001908152602001600020600082015181600001556020820151816001015560408201518160020190816106589190611733565b5060608201518160030160006101000a81548160ff021916908360ff1602179055506080820151816004015560a0820151816005015560c08201518160060155905050600160008154809291906106ae90611834565b9190505550505050505050565b8060006002600083815260200190815260200160002060030160009054906101000a900460ff1660ff1611610725576040517f08c379a000000000000000000000000000000000000000000000000000000000815260040161071c906112ff565b60405180910390fd5b6000600281111561073957610738611026565b5b600360003373ffffffffffffffffffffffffffffffffffffffff1673ffffffffffffffffffffffffffffffffffffffff168152602001908152602001600020600084815260200190815260200160002060009054906101000a900460ff1660028111156107a9576107a8611026565b5b146107e9576040517f08c379a00000000000000000000000000000000000000000000000000000000081526004016107e0906118ee565b60405180910390fd5b6002600083815260200190815260200160002060050154421015610842576040517f08c379a00000000000000000000000000000000000000000000000000000000081526004016108399061195a565b60405180910390fd5b600260008381526020019081526020016000206006015442111561089b576040517f08c379a0000000000000000000000000000000000000000000000000000000008152600401610892906119c6565b60405180910390fd5b6001600360003373ffffffffffffffffffffffffffffffffffffffff1673ffffffffffffffffffffffffffffffffffffffff168152602001908152602001600020600084815260200190815260200160002060006101000a81548160ff0219169083600281111561090f5761090e611026565b5b0217905550600060026000848152602001908152602001600020905080600101600081548092919061094090611834565b9190505550505050565b60036020528160005260406000206020528060005260406000206000915091509054906101000a900460ff1681565b8060006002600083815260200190815260200160002060030160009054906101000a900460ff1660ff16116109e3576040517f08c379a00000000000000000000000000000000000000000000000000000000081526004016109da906112ff565b60405180910390fd5b600160028111156109f7576109f6611026565b5b600360003373ffffffffffffffffffffffffffffffffffffffff1673ffffffffffffffffffffffffffffffffffffffff168152602001908152602001600020600084815260200190815260200160002060009054906101000a900460ff166002811115610a6757610a66611026565b5b14610aa7576040517f08c379a0000000000000000000000000000000000000000000000000000000008152600401610a9e90611a32565b60405180910390fd5b6002600083815260200190815260200160002060050154421015610b00576040517f08c379a0000000000000000000000000000000000000000000000000000000008152600401610af79061195a565b60405180910390fd5b6002600083815260200190815260200160002060060154421115610b59576040517f08c379a0000000000000000000000000000000000000000000000000000000008152600401610b50906119c6565b60405180910390fd5b6002600360003373ffffffffffffffffffffffffffffffffffffffff1673ffffffffffffffffffffffffffffffffffffffff168152602001908152602001600020600084815260200190815260200160002060006101000a81548160ff02191690836002811115610bcd57610bcc611026565b5b02179055505050565b60015481565b6002602052806000526040600020600091509050806000015490806001015490806002018054610c0b90611486565b80601f0160208091040260200160405190810160405280929190818152602001828054610c3790611486565b8015610c845780601f10610c5957610100808354040283529160200191610c84565b820191906000526020600020905b815481529060010190602001808311610c6757829003601f168201915b5050505050908060030160009054906101000a900460ff16908060040154908060050154908060060154905087565b60008054906101000a900473ffffffffffffffffffffffffffffffffffffffff1681565b508054610ce390611486565b6000825580601f10610cf55750610d14565b601f016020900490600052602060002090810190610d139190610d17565b5b50565b5b80821115610d30576000816000905550600101610d18565b5090565b600080fd5b600080fd5b6000819050919050565b610d5181610d3e565b8114610d5c57600080fd5b50565b600081359050610d6e81610d48565b92915050565b600060208284031215610d8a57610d89610d34565b5b6000610d9884828501610d5f565b91505092915050565b600080fd5b600080fd5b600080fd5b60008083601f840112610dc657610dc5610da1565b5b8235905067ffffffffffffffff811115610de357610de2610da6565b5b602083019150836001820283011115610dff57610dfe610dab565b5b9250929050565b600060ff82169050919050565b610e1c81610e06565b8114610e2757600080fd5b50565b600081359050610e3981610e13565b92915050565b600080600080600080600060c0888a031215610e5e57610e5d610d34565b5b6000610e6c8a828b01610d5f565b975050602088013567ffffffffffffffff811115610e8d57610e8c610d39565b5b610e998a828b01610db0565b96509650506040610eac8a828b01610e2a565b9450506060610ebd8a828b01610d5f565b9350506080610ece8a828b01610d5f565b92505060a0610edf8a828b01610d5f565b91505092959891949750929550565b60008060008060008060a08789031215610f0b57610f0a610d34565b5b600087013567ffffffffffffffff811115610f2957610f28610d39565b5b610f3589828a01610db0565b96509650506020610f4889828a01610e2a565b9450506040610f5989828a01610d5f565b9350506060610f6a89828a01610d5f565b9250506080610f7b89828a01610d5f565b9150509295509295509295565b600073ffffffffffffffffffffffffffffffffffffffff82169050919050565b6000610fb382610f88565b9050919050565b610fc381610fa8565b8114610fce57600080fd5b50565b600081359050610fe081610fba565b92915050565b60008060408385031215610ffd57610ffc610d34565b5b600061100b85828601610fd1565b925050602061101c85828601610d5f565b9150509250929050565b7f4e487b7100000000000000000000000000000000000000000000000000000000600052602160045260246000fd5b6003811061106657611065611026565b5b50565b600081905061107782611055565b919050565b600061108782611069565b9050919050565b6110978161107c565b82525050565b60006020820190506110b2600083018461108e565b92915050565b6110c181610d3e565b82525050565b60006020820190506110dc60008301846110b8565b92915050565b600081519050919050565b600082825260208201905092915050565b60005b8381101561111c578082015181840152602081019050611101565b60008484015250505050565b6000601f19601f8301169050919050565b6000611144826110e2565b61114e81856110ed565b935061115e8185602086016110fe565b61116781611128565b840191505092915050565b61117b81610e06565b82525050565b600060e082019050611196600083018a6110b8565b6111a360208301896110b8565b81810360408301526111b58188611139565b90506111c46060830187611172565b6111d160808301866110b8565b6111de60a08301856110b8565b6111eb60c08301846110b8565b98975050505050505050565b61120081610fa8565b82525050565b600060208201905061121b60008301846111f7565b92915050565b7f4f6e6c79207468652061646d696e2063616e20706572666f726d20746869732060008201527f6f7065726174696f6e0000000000000000000000000000000000000000000000602082015250565b600061127d6029836110ed565b915061128882611221565b604082019050919050565b600060208201905081810360008301526112ac81611270565b9050919050565b7f517565737420646f6573206e6f74206578697374000000000000000000000000600082015250565b60006112e96014836110ed565b91506112f4826112b3565b602082019050919050565b60006020820190508181036000830152611318816112dc565b9050919050565b7f53746172742074696d65206d75737420626520696e2074686520667574757265600082015250565b60006113556020836110ed565b91506113608261131f565b602082019050919050565b6000602082019050818103600083015261138481611348565b9050919050565b7f456e642074696d65206d7573742062652061667465722073746172742074696d60008201527f6500000000000000000000000000000000000000000000000000000000000000602082015250565b60006113e76021836110ed565b91506113f28261138b565b604082019050919050565b60006020820190508181036000830152611416816113da565b9050919050565b600082905092915050565b7f4e487b7100000000000000000000000000000000000000000000000000000000600052604160045260246000fd5b7f4e487b7100000000000000000000000000000000000000000000000000000000600052602260045260246000fd5b6000600282049050600182168061149e57607f821691505b6020821081036114b1576114b0611457565b5b50919050565b60008190508160005260206000209050919050565b60006020601f8301049050919050565b600082821b905092915050565b6000600883026115197fffffffffffffffffffffffffffffffffffffffffffffffffffffffffffffffff826114dc565b61152386836114dc565b95508019841693508086168417925050509392505050565b6000819050919050565b600061156061155b61155684610d3e565b61153b565b610d3e565b9050919050565b6000819050919050565b61157a83611545565b61158e61158682611567565b8484546114e9565b825550505050565b600090565b6115a3611596565b6115ae818484611571565b505050565b5b818110156115d2576115c760008261159b565b6001810190506115b4565b5050565b601f821115611617576115e8816114b7565b6115f1846114cc565b81016020851015611600578190505b61161461160c856114cc565b8301826115b3565b50505b505050565b600082821c905092915050565b600061163a6000198460080261161c565b1980831691505092915050565b60006116538383611629565b9150826002028217905092915050565b61166d838361141d565b67ffffffffffffffff81111561168657611685611428565b5b6116908254611486565b61169b8282856115d6565b6000601f8311600181146116ca57600084156116b8578287013590505b6116c28582611647565b86555061172a565b601f1984166116d8866114b7565b60005b82811015611700578489013582556001820191506020850194506020810190506116db565b8683101561171d5784890135611719601f891682611629565b8355505b6001600288020188555050505b50505050505050565b61173c826110e2565b67ffffffffffffffff81111561175557611754611428565b5b61175f8254611486565b61176a8282856115d6565b600060209050601f83116001811461179d576000841561178b578287015190505b6117958582611647565b8655506117fd565b601f1984166117ab866114b7565b60005b828110156117d3578489015182556001820191506020850194506020810190506117ae565b868310156117f057848901516117ec601f891682611629565b8355505b6001600288020188555050505b505050505050565b7f4e487b7100000000000000000000000000000000000000000000000000000000600052601160045260246000fd5b600061183f82610d3e565b91507fffffffffffffffffffffffffffffffffffffffffffffffffffffffffffffffff820361187157611870611805565b5b600182019050919050565b7f506c617965722068617320616c7265616479206a6f696e65642f7375626d697460008201527f7465642074686973207175657374000000000000000000000000000000000000602082015250565b60006118d8602e836110ed565b91506118e38261187c565b604082019050919050565b60006020820190508181036000830152611907816118cb565b9050919050565b7f517565737420686173206e6f7420737461727465642079657400000000000000600082015250565b60006119446019836110ed565b915061194f8261190e565b602082019050919050565b6000602082019050818103600083015261197381611937565b9050919050565b7f51756573742068617320616c726561647920656e646564000000000000000000600082015250565b60006119b06017836110ed565b91506119bb8261197a565b602082019050919050565b600060208201905081810360008301526119df816119a3565b9050919050565b7f506c61796572206d757374206669727374206a6f696e20746865207175657374600082015250565b6000611a1c6020836110ed565b9150611a27826119e6565b602082019050919050565b60006020820190508181036000830152611a4b81611a0f565b905091905056fea2646970667358221220d9dd83f151b0918643d1d765011cf59f09672e34296f5a40dfc60ea6c3d7429964736f6c63430008120033",
  "linkReferences": {},
  "deployedLinkReferences": {}
}